:100000000C943C040C9483040C9483040C9483049B
:100010000C9483040C9483040C9483040C94830444
:100020000C9483040C9483040C94151E0C94E81E09
:100030000C9488150C9483040C9483040C9483040E
:100040000C9483040C9483040C9483040C94830414
:100050000C9483040C94F0150C9483040C94830486
:100060000C9483040C9483040C9483040C948304F4
:100070000C9483040C9483040C9483040C948304E4
:100080000C9483040C9483040C9483040C948304D4
:100090000C9483040C9483040C9483040C948304C4
:1000A0000C9483040C9483040C9483043A003B0066
:1000B0003C003D003E00460047003F00400041003C
:1000C0004200000000004800430044004500530087
:1000D00054005500560049004A004B005F00600084
:1000E000610057004C004D004E005C005D005E005A
:1000F000580000005200000059005A005B00000048
:10010000500051004F006200000063000000010039
:1001100001000100010001000100010001000100D7
:1001200001000100000000000100010001000100C9
:1001300001000100010001000100010001000100B7
:1001400001000100010001000100010001000100A7
:100150000100010000000100000001000100010099
:10016000000001000100010001000000010000008A
:100170000100010001000100010001000100010077
:100180000100010001000000000001000100010069
:100190000100010001000100010001000100010057
:1001A0000100010001000100010001000100010047
:1001B0000100010001000000010000000100010039
:1001C0000100000001000100010001000000010029
:1001D0000000010001000100010001000100010018
:1001E0000100010001000100000000000100010009
:1001F00001000100010001000100010001000100F7
:1002000001000100010001000100010001000100E6
:1002100001000100010001000000010000000100D8
:1002200001000100000001000100010001000000C8
:1002300001000000010001000100010001000100B7
:1002400001000100010001000100000000000100A8
:100250000100010001000100010001000100010096
:100260000100010001000100010001000100010086
:100270000100010001000100010000000100000078
:100280000100010001000000010001000100010067
:100290000000010000000100010001000100010058
:1002A0000100010001000100010001000000000048
:1002B0000100010001000100010001000100010036
:1002C0000100010001000100010001000100010026
:1002D0000100010001000100010001000000010017
:1002E0000000010001000100000001000100010008
:1002F00001000000010000000100010001000100F8
:1003000001000100010001000100010001000000E6
:1003100000000100010001000100010001000100D6
:1003200001000100010001000100010001000100C5
:1003300001000100010001000100010001000000B6
:1003400001000000010001000100000001000100A7
:100350000100010000000100000001000100010097
:100360000100010001000100010001000100010085
:100370000000000001000100010001000100010077
:100380000100010001000100010001000100010065
:100390000100010001000100010001000100010055
:1003A0000000010000000100010001000000010048
:1003B0000100010001000000010000000100010037
:1003C0000100010001000100010001000100010025
:1003D0000100000000000100010001000100010017
:1003E0000100010001000100010001000100010005
:1003F00001000100010001000100010001000100F5
:1004000001000000010000000100010001000000E7
:1004100001000100010001000000010000000100D6
:1004200001000100010001000100010001000100C4
:1004300001000100000000000100010001000100B6
:1004400001000100010001000100010001000100A4
:100450000100010001000100010001000100010094
:100460000100010000000100000001000100010086
:100470000000010001000100010000000100000077
:100480000100010001000100010001000100010064
:100490000100010001000000000001000100010056
:1004A0000100010001000100010001000100010044
:1004B0000100010001000100010001000100010034
:1004C0000100010001000000010000000100010026
:1004D0000100000001000100010001000000010016
:1004E0000000010001000100010001000100010005
:1004F00001000100010001000000000001000100F6
:1005000001000100010001000100010001000100E3
:1005100001000100010001000100010001000100D3
:1005200001000100010001000000010000000100C5
:1005300001000100000001000100010001000000B5
:1005400001000000010001000100010001000100A4
:100550000100010001000100010000000000010095
:100560000100010001000100010001000100010083
:100570000100010001000100010001000100010073
:100580000100010001000100010000000100000065
:100590000100010001000000010001000100010054
:1005A0000000010000000100010001000100010045
:1005B0000100010001000100010001000000000035
:1005C0000100010001000100010001000100010023
:1005D0000100010001000100010001000100010013
:1005E0000100010001000100010001000000010004
:1005F00000000100010001000000010001000100F5
:1006000001000000010000000100010001000100E4
:1006100001000100010001000100010001000000D3
:1006200000000100010001000100010001000100C3
:1006300001000100010001000100010001000100B2
:1006400001000100010001000100010001000000A3
:100650000100000001000100010000000100010094
:100660000100010000000100000001000100010084
:100670000100010001000100010001000100010072
:100680000000000001000100010001000100010064
:100690000100010001000100010001000100010052
:1006A0000100010001000100010001000100010042
:1006B0000000010000000100010001000000010035
:1006C00001000100010000000100000012036B00A6
:1006D0006500790062006F00610072006400000034
:1006E000160371006D006B006200750069006C00FC
:1006F00064006500720000000403090409026D0033
:10070000040100A0FA09040000010301010009210D
:10071000110100012240000705810308000A0904B5
:1007200001000103010200092111010001224D0015
:100730000705820308000A09040200010300000003
:100740000921110100012236000705830308000A70
:100750000904030001030000000921110100012226
:100760003900070584032000011201100100000078
:1007700008EDFE606001000102000105010906A10B
:1007800001050719E029E715002501950875018184
:100790000205081901290595057501910295017554
:1007A0000391010507190029F71500250195F87532
:1007B000018102C005010980A10185021601002600
:1007C00003001A81002A8300751095018100C0057D
:1007D0000C0901A1018503160100269C021A0100E3
:1007E0002A9C02751095018100C005010902A10132
:1007F0000901A10005091901290515002501950523
:1008000075018102950175038101050109300931E6
:100810001581257F95027508810609381581257F88
:10082000950175088106050C0A38021581257F950A
:100830000175088106C0C005010906A10105071957
:10084000E029E715002501950875018102950175DC
:100850000881010508190129059505750191029581
:1008600001750391010507190029FF150026FF00F6
:10087000950675088100C00011241FBECFEFDAE095
:10088000DEBFCDBF04B603FE27C080913002909139
:100890003102A0913202B09133028730904BA740D1
:1008A000B04BD1F410923002109231021092320209
:1008B0001092330214BE84B7877F84BF0FB6F894BA
:1008C000A89580916000886180936000109260001C
:1008D0000FBEE0E0F8E3099511E0A0E0B1E0E8E543
:1008E000F4E402C005900D92A633B107D9F722E0D7
:1008F000A6E3B1E001C01D92A033B207E1F70E9468
:10090000641B0C942A220C94000090E080E008956F
:100910000895089581E00895089581E008950C9464
:100920008A040E94020E2FEF84E39CE02150804055
:100930009040E1F700C000000C941516FF920F9351
:100940001F93CF93DF938C01FC01C081D1818091F3
:10095000670181113FC082818823B9F1CE010E94D5
:100960006913F82E682FCE010E940F13BE018F2D40
:100970000E94E505EC01B8010E948F04882309F468
:100980004AC0B801CE010E94F507882309F443C08C
:10099000C531F0E7DF0718F5C23080E7D80708F067
:1009A0004BC0C115E0E7DE0789F1C130D047D1F176
:1009B00081E08093380180933901C801DF91CF91A4
:1009C0001F910F91FF900C948D04CE010E943E1355
:1009D000F82ECCCFCE010E946913BE01C9CFCC3313
:1009E00080E7D80709F4ACC0CD33D04709F7F80148
:1009F0008281882309F4CBC0109239010E94BA1574
:100A0000909337018093360180E2A7C0F80182817C
:100A100081110E94910480E0DF91CF911F910F918D
:100A2000FF900895F80182818823A9F38091F00155
:100A300081608093F001EFCFF8018281882309F46F
:100A4000BCCF0E941A15811102C00E9400150E949D
:100A5000371590E09093220280932102FE01E3502B
:100A6000F047809121028160E231F105C8F4E55C34
:100A7000FA4F0C94DA214D0559055D0561056505B0
:100A800069056D057105750579057D058105850586
:100A900089058D0591059505990580912102826052
:100AA00080932102809121020E943B150E94020E38
:100AB000B2CF809121028460F3CF809121028860BF
:100AC000EFCF809121028061EBCF80912102806283
:100AD000E7CF809121028064E3CF8091210280687A
:100AE000DFCF809121028460EACF809121028E7F46
:100AF000D7CF809121028D7FD3CF809121028B7F30
:100B0000CFCF80912102877FCBCF809121028F7E32
:100B1000C7CF809121028F7DC3CF809121028F7B2F
:100B2000BFCF809121028F77BBCF809121028B7F35
:100B3000EACF90912102892F97FB87F98058B0CF97
:100B4000F8018281882361F0109238010E94BA1561
:100B5000909337018093360182E00E948C0B5BCF2B
:100B60008091380181110FC0809136019091370139
:100B70000E94C615883C910530F486E20E94610A05
:100B800086E20E943D0B82E00E94930B44CF80914D
:100B9000390181110FC080913601909137010E9477
:100BA000C615883C910530F487E20E94610A87E20D
:100BB0000E943D0B80E2E8CF0C9444080C94460858
:100BC0000C948C040C94E0050895972F70E027E0B6
:100BD000929F600D711D1124FB0191E3899FE00D2F
:100BE000F11D1124EE0FFF1FE455FF4F85919491E5
:100BF0000895FC01EE0FFF1FE453F94F8591949186
:100C000008950E94E5050E947407811520E492076B
:100C100008F08DC0811540E3940708F0E8C0803EDD
:100C2000910508F071C0803C910508F0CCC0883A6D
:100C3000910580F4853A910508F0CAC0813091058C
:100C400009F46EC020F08430910508F069C090E08E
:100C500080E008958D3B9105D0F7883A910509F41D
:100C600004C1893A910509F403C18A3A910509F44E
:100C700002C18B3A910509F401C18C3A910509F43E
:100C800000C18B3B910509F4FFC08C3B910509F431
:100C9000FEC08D3A910509F4FDC0803B910509F431
:100CA000FCC08E3A910509F4FBC08F3A910509F416
:100CB000FAC0813B910509F4F9C0823B910509F422
:100CC000F8C0833B910509F4F7C0843B910509F412
:100CD000F6C0853B910509F4F5C0863B910509F402
:100CE000F4C0873B910509F4F3C0883B910509F4F2
:100CF000F2C0893B910509F4F1C08A3B910509F4E2
:100D0000F0C080E094E408958F3F910509F048F425
:100D1000803F910508F067C0883E910508F097CFA5
:100D20000895811520E2920708F05FC008958115AB
:100D300043E5940760F5811522E5920708F062C04B
:100D4000811541E5940708F058C0811520E5920708
:100D500008F450C09C0154E0369527955A95E1F768
:100D6000922F9370482F437021E030E002C0220F91
:100D7000331F4A95E2F73C68392B86958695837038
:100D800040E2849FC0011124822B932B089581158A
:100D900045E5940750F4811524E5920708F446C010
:100DA000982F8827846F906A0895811546E59407E7
:100DB00008F450C09C0130569F702115304108F056
:100DC00046CF90620895805C91090E94F9050895CC
:100DD000853A910509F443C0863A910509F042C06D
:100DE00082E890E40895906508959F70EECF99276A
:100DF000906C08959F70906A0895982F8827816F4E
:100E0000906A0895AC014370552721E030E002C09C
:100E1000220F331F4A95E2F78695869540E2849F1C
:100E2000C0011124822B932B9C680895AC01437060
:100E3000552721E030E002C0220F331F4A95E2F728
:100E40008695869540E2849FC0011124822B932BC6
:100E50009A680895982F882788279F71B2CF81E8D4
:100E600090E4089583E890E4089582EE94E4089570
:100E700089EE94E408958AEE94E4089585EB94E471
:100E8000089586EB94E4089583EB94E4089584EB4D
:100E900094E4089587EB94E408958CEC94E4089529
:100EA0008DEC94E4089583E895E408958AE895E448
:100EB000089582E995E4089584E995E4089581E22E
:100EC00096E4089583E296E4089584E296E4089512
:100ED00085E296E4089586E296E4089587E296E432
:100EE00008958AE296E41CCF8238910549F1B0F466
:100EF0008133910509F45CC048F48932910509F405
:100F000052C08A32910509F458C00895853391057D
:100F100009F444C08933910599F00895833E910501
:100F200031F138F4803E910591F0823E9105B1F0A7
:100F30000895863E910511F1873E910541F108958E
:100F4000209121022370C9F080EE90E00895209155
:100F5000210220FF12C089E390E008952091210230
:100F600022FF0BC024FF2EC090E080E00895209166
:100F7000210222FD2AC024FDF7CF089520912102ED
:100F800023FFFBCF24FDF0CF87EE90E00895209162
:100F9000210223FFF0CF86EE90E0089520912102F8
:100FA00025FD16C008952091210225FD14C0089545
:100FB0002091210226FD12C008952091210226FDD4
:100FC00010C0089583EE90E0089582EE90E00895B9
:100FD00089E290E0089585E390E008958AE290E048
:100FE000089581E390E0C9CF08950F931F93CF93A5
:100FF0008C01FB018281811106C0C1E08C2FCF9151
:101000001F910F910895C0914701C11125C005316D
:10101000104799F70E94F40781E0809347010E94EE
:10102000BA15909346018093450110923A011092AF
:101030003C0110923B0110923E0110923D01109232
:10104000400110923F011092420110924101109212
:10105000440110924301D2CF809145019091460105
:101060000E94C615883C910540F680913A01E82F10
:10107000F0E0EE0FFF1FE55CFE4F118300838F5FF2
:1010800080933A01C0E0BACF0C9488040C94890490
:1010900085B7806885BF85B7806885BFAAE1B1E064
:1010A00061E070E08D91E82FE295EF70F0E041A1F2
:1010B0008F709B0101C0220F8A95EAF7922F9095BD
:1010C000942391A382A1822B82A381E0A132B8074D
:1010D00049F7A3E1B1E061E070E08D91E82FE2957E
:1010E000EF70F0E041A18F709B0101C0220F8A9543
:1010F000EAF7922F9095942391A382A1822B82A349
:1011000081E0AA31B80749F7EFE4F1E0A8E4B1E0E3
:1011100086E591E011921D928E179F07D9F70C94E6
:10112000DC056F927F928F929F92AF92BF92CF9287
:10113000DF92EF92FF920F931F93CF93DF9308E418
:1011400011E09AE1E92E91E0F92EE801CC24C39454
:10115000D12CBB24B394A8801882D7018D917D0136
:10116000E82FE295EF70F0E091A18F70A60101C029
:10117000440F8A95EAF7892F842B81A382A1842EBC
:101180008094882182A3B0EABA95F1F783E1682EB2
:1011900081E0782E90E080E0D3013D913D01632F06
:1011A00062956F7070E0DB0190962C9198803F7093
:1011B000B60101C0660F3A95EAF7622320E031F4E8
:1011C0002C2D082E01C0220F0A94EAF72929288322
:1011D00001968730910501F781A1882181A382A121
:1011E000482B42A38881A81641F0B09256010E9474
:1011F000BA1590935801809357012196B1E2EB16EE
:10120000B1E0FB0609F0A7CF809156018823A9F031
:1012100080915701909158010E94C615069768F079
:10122000EFE4F1E08FE491E0D8012D918D0121935D
:101230008A179B07C9F7109256010E94DE0581E0CC
:10124000DF91CF911F910F91FF90EF90DF90CF90A2
:10125000BF90AF909F908F907F906F900895E82FF0
:10126000F0E0E15BFE4F80810895089590935E0168
:1012700080935D010895E0915D01F0915E013097EA
:1012800021F00190F081E02D099480E00895E09133
:101290005D01F0915E01309721F00280F381E02D35
:1012A00009940895E0915D01F0915E01309721F07D
:1012B0000480F581E02D0994089520915B0130911F
:1012C0005C012817390771F090935C0180935B01F2
:1012D000E0915D01F0915E01309721F00680F78189
:1012E000E02D099408952091590130915A01281751
:1012F000390771F090935A0180935901E0915D0193
:10130000F0915E01309721F00084F185E02D099481
:10131000089508950C9489090E94B1150E94480807
:101320000C947A16BF92CF92DF92EF92FF920F93B6
:101330001F93CF93DF93CDB7DEB72A970FB6F894FC
:10134000DEBF0FBECDBF0E94910880E6C82E81E0AF
:10135000D82E10E000E0B02E802F0E942F09E82E3A
:10136000F601F1906F01F81609F45AC08091F0016E
:1013700081FD0E94350990E080E0FE242F2D30E0B1
:10138000482FB901082E02C0759567950A94E2F7B7
:1013900060FF41C08E83BF8281E090E06C0102C09B
:1013A000CC0CDD1C4A95E2F72E2D30E02C213D219E
:1013B000232B09F480E088870E94BA158160782F7A
:1013C0009A8789874E815F8168858A850E94370A5E
:1013D000F801E05AFE4F80818C2580830E94FE1820
:1013E0000E943B0990915F01891789F10E943B0996
:1013F00080935F012A960FB6F894DEBF0FBECDBF73
:10140000DF91CF911F910F91FF90EF90DF90CF90E0
:10141000BF900C94E20501968730910509F0B0CF9A
:101420000F5F1F4F0730110509F095CF8FEF8983AC
:101430008A831B820E94BA158160782F9D838C83DA
:1014400049815A816B818D810E94370AC7CF2A96C4
:101450000FB6F894DEBF0FBECDBFDF91CF911F91C5
:101460000F91FF90EF90DF90CF90BF900895CF93B2
:10147000DF93CDB7DEB72B970FB6F894DEBF0FBE64
:10148000CDBF4F83588769877A878B871E821D82DD
:1014900085E0FE013796DE01119601900D928A9546
:1014A000E1F749815A816B817C818D819E812B96E8
:1014B0000FB6F894DEBF0FBECDBFDF91CF910C9475
:1014C000B410882309F4D8C0823871F40E943B0913
:1014D00081FDD2C089E30E9409140E94D11489E3DE
:1014E0000E9446140C94D114833859F40E943B098D
:1014F00080FDC2C083E50E9409140E94D11483E5D7
:10150000EFCF843859F40E943B0982FDB5C087E4CF
:101510000E9409140E94D11487E4E2CF9CEF980F37
:10152000913A18F40E940914DDCF90E2980F983098
:1015300050F4877091E001C0990F8A95EAF7892FDE
:101540000E948814CFCF9BE5980F933070F4853AB2
:1015500031F0863A39F083E890E00C945D0981E837
:1015600090E0FBCF82E890E0F8CF98E5980F9531B6
:1015700008F082C0883A09F440C0893A09F440C0B2
:101580008A3A09F440C08B3A09F440C08C3A09F415
:1015900040C08B3B09F440C08C3B09F440C08D3AFD
:1015A00009F440C0803B09F440C08E3A09F440C0C1
:1015B0008F3A09F440C0813B09F440C0823B09F4F2
:1015C00040C0833B09F440C0843B09F440C0853BE4
:1015D00009F440C0863B09F440C0873B09F440C091
:1015E000883B09F440C0893B09F440C08A3B09F4B8
:1015F00040C090E080E00C94730982EE90E0FBCF55
:1016000089EE90E0F8CF8AEE90E0F5CF85EB90E0A0
:10161000F2CF86EB90E0EFCF83EB90E0ECCF84EB62
:1016200090E0E9CF87EB90E0E6CF8CEC90E0E3CF61
:101630008DEC90E0E0CF83E891E0DDCF8AE891E0A7
:10164000DACF82E991E0D7CF84E991E0D4CF81E28B
:1016500092E0D1CF83E292E0CECF84E292E0CBCF92
:1016600085E292E0C8CF86E292E0C5CF87E292E0C1
:10167000C2CF8AE292E0BFCF0895882309F44BC01D
:10168000823871F40E943B0981FF45C089E30E94C2
:1016900009140E94D11489E30E9446140C94D114B9
:1016A000833859F40E943B0980FF35C083E50E94CE
:1016B00009140E94D11483E5EFCF843859F40E94B5
:1016C0003B0982FF28C087E40E9409140E94D114BC
:1016D00087E4E2CF9CEF980F913AF0F290E2980FF6
:1016E000983050F4877091E001C0990F8A95EAF71D
:1016F000892F0E948E14D2CF9BE5980F933020F44F
:1017000090E080E00C945D09885A853120F490E0E7
:1017100080E00C9473090895882321F00E948814B6
:101720000C94D1140895882321F00E948E140C94F7
:10173000D11408958F929F92AF92BF92DF92EF9251
:10174000FF920F931F93CF93DF937C01D62FC72F68
:10175000FC01058102950F70128111110E94A714DE
:101760000E940214D82E882371F0112321F180E207
:101770008D0F883000F182E00E94EC130E94021469
:1017800091E0D82ED926EC2FE295EF70F0E0E553EA
:10179000F44F0C94DA21DD0BDD0B2D0C2D0C6F0CAE
:1017A0008B0C0A0C0A0C960C0A0C2E0D2E0DA10D9A
:1017B0000A0C0A0CAA0DD12CE6CF0C2F0F70C07F9B
:1017C00011F00295007F1123A9F0002359F080E267
:1017D0008D0F883010F0D11109C0802F0E9488141D
:1017E0000E94D1148D2F0E94610A14C0802F0E9484
:1017F0009914F6CF8D2F0E943D0B002359F080E203
:101800008D0F883010F0D11124C0802F0E948E14CB
:101810000E94D114DD2009F4A4C10E94DF1380FDD1
:10182000A0C1F70112820E94D9130E945312C7016E
:101830000E94BD0D0E94D913DF91CF911F910F918E
:10184000FF90EF90DF90BF90AF909F908F900C949F
:101850007412802F0E949F14DBCFFC2FFF70BF2ECD
:10186000C07FC03219F0B29480EFB822DD2369F056
:10187000D13029F1112369F1002359F0F701858155
:1018800080FFB0CF8F70858304C0112361F00111F8
:1018900004C08B2D0E948C0BBDCF8B2D0130D1F756
:1018A0000E94BB14B7CF011106C00E94BE148B2D3D
:1018B0000E94930BAFCF013009F4ACCFF6CF1123C8
:1018C00021F0063008F0A6CFE4CF053008F0A2CF13
:1018D000EECF002361F38D2F0E943D0B9BCF8C2F09
:1018E00086958695837069F0813009F093CF8D2FAE
:1018F0009C2F9370111102C090E080E00E94730948
:1019000089CF8D2F9C2F9370111102C090E080E041
:101910000E945D097FCF8D2F112329F00E940718A7
:101920000E94F31877CF0E946F18FACF8C2F837024
:1019300009F047C011116ECF2D2F229526952770E3
:10194000220F220F6D2F6F70862E912CB12CA12C9F
:10195000022E04C0880C991CAA1CBB1C0A94D2F746
:1019600060E070E0CB01D4FF0FC06FE070E080E07A
:1019700090E004C0660F771F881F991F2A95D2F741
:101980006095709580959095C695C695C370C23048
:1019900051F080F4682979298A299B29C13071F096
:1019A0000E94FC1137CF682979298A299B290E9436
:1019B000181230CF0E94FC11C501B4010E94E01141
:1019C00029CF8695112311F08C2F8170882309F47B
:1019D00021CF2D2F229526952770220F220F6D2FB4
:1019E0006F70862E912CB12CA12C022E04C0880C75
:1019F000991CAA1CBB1C0A94D2F760E070E0CB01D2
:101A0000D4FF0FC06FE070E080E090E004C0660F8C
:101A1000771F881F991F2A95D2F76095709580953A
:101A20009095C695C695C370C23051F080F4682970
:101A300079298A299B29C13071F00E94D612EACEF9
:101A4000682979298A299B290E94F212E3CE0E94F3
:101A5000D612C501B4010E94BA12DCCEE0E2ED0F4D
:101A6000E53108F062C0F0E0E85CF24F0C94DA2156
:101A70004D0D4D0D4D0D4D0D4D0D4D0D4D0D4D0D96
:101A80004D0D4D0D4D0D4D0D4D0D4D0D4D0D4D0D86
:101A90005A0D680D6F0D760D800DDF708C2F8F71D4
:101AA000112321F00E9453128D2FF4CE0E94741244
:101AB0008D2FFECE112341F0053008F0ABCE8C2FD8
:101AC0008F710E949912A6CE063008F0A3CEF7CFF0
:101AD0008C2F8F71112339F00E9453129BCE8C2FC3
:101AE0008F711123C9F30E94741294CE112329F02F
:101AF0008C2F8F710E943E128DCE0E9434128ACE9E
:101B0000112349F0CF718C2F0E94531263E08C2F68
:101B10000E94E3137FCE81E00E94EC13023008F4B0
:101B200079CE82E00E94EC1375CE112329F00111C9
:101B300059CE8C2F8F71D0CF0111CDCE8C2F8F71BC
:101B4000D2CF4C2F4F706D2FC7010E9485040E9489
:101B50005D1160CE4C2F4F706D2FC7010E94E405C0
:101B600059CEDF91CF911F910F91FF90EF90DF90B1
:101B7000BF90AF909F908F9008950F931F93CF9336
:101B8000DF93EC01988189812B813C81232B39F0F3
:101B90008F3F19F481E09F3F19F080E001C081E0A0
:101BA00080FD17C0CE010E949E04882391F06881B9
:101BB00079818A810E94B5138C010E940E130E94C4
:101BC000D511B801CE01DF91CF911F910F910C94E7
:101BD0009A0BDF91CF911F910F9108950E94A71446
:101BE0000E94B8140E947A140E94D1140E94A01975
:101BF0000E94F31890E080E00E945D0990E080E090
:101C00000C9473090E9496140C94EE0D0E94AB1371
:101C1000E92FE295EF70E250EE30E0F4F0E0ED5E97
:101C2000F14F0C94DA21210E210E2A0E2A0E2C0ED1
:101C30002A0E2A0E2A0E210E210E310E2A0E2A0EEF
:101C4000310E803F19F020F4803E20F481E00895A9
:101C5000843FE1F380E00895803EC0F3813FD1F7F7
:101C6000F5CF93FB882780F90895CF93DF9300D0B9
:101C700000D01F92CDB7DEB70F900F900F900F904E
:101C80000F90DF91CF910895CF93DF9300D000D0D4
:101C900000D0CDB7DEB726960FB6F894DEBF0FBEE4
:101CA000CDBFDF91CF9108951F93CF93DF93C09164
:101CB000680116E0809169018C1304C0DF91CF9117
:101CC0001F910895D0E01C9FF0011D9FF00D11247D
:101CD000E659FE4F408151816281738184819581F3
:101CE0000E94440E2196C770E5CF40919A01509111
:101CF0009B0160919C0170919D0180919E0190914A
:101D00009F010C94440E1F93CF93DF9380919F010A
:101D1000807FD1F480919C018823B1F0809168018B
:101D2000D0916901B0919A01C0919B0140919D01B0
:101D300050919E01A1E0BF3F09F0A0E0BA0160957B
:101D4000709516E0D81304C0DF91CF911F910895CC
:101D500021E04115510521F02A2FCF3F09F020E065
:101D600090E020FD38C0189FF001199FF00D11245C
:101D7000E659FE4F21812C132EC020812B132BC03E
:101D80002281211128C0238134812417350700F1D5
:101D9000241B350B283C3105F0F420919F012F7056
:101DA000206120939F0126E0289FF001299FF00DDC
:101DB0001124E159FE4F80818F70806180838AE910
:101DC00091E00E94BD0DDF91CF911F910C94540EB4
:101DD000260F371FDFCF01968770B4CFAF92BF9227
:101DE000CF92DF92EF92FF920F931F93CF93DF93E7
:101DF000CDB7DEB761970FB6F894DEBF0FBECDBF8B
:101E00008C0185E0F801DE011D9601900D928A9506
:101E1000E1F7D8014C9111965C9111971296EC90D4
:101E200030919A0160919B0180919D0190919E015A
:101E300021E0009731F06F3F19F421E03F3F09F0B6
:101E400020E0B22FB170BB2E20FD80C1F801C3800D
:101E5000D480A0909C01AA2009F427C1C816D906F5
:101E6000D0F1D601A81BB90BCD01FF24F394883C17
:101E7000910508F0F12C80919F01982F907FFF2011
:101E800009F4CAC0911187C0FE2C651329C0341310
:101E900027C0E11025C08F70806180939F010E9450
:101EA000750E8AE991E00E94BD0D80919F01F801B5
:101EB00085838F2D61960FB6F894DEBF0FBECDBF20
:101EC000DF91CF911F910F91FF90EF90DF90CF9016
:101ED000BF90AF900895809590958C0D9D1DC5CFB6
:101EE00081E0CD2831F05F3F19F481E04F3F09F0E8
:101EF00080E080FD24C081E08E25F82FF170DF2E78
:101F000080FF3FC0809168012091690136E0821313
:101F100018C04D875E878D859E850E94AB13292F43
:101F200022952F70223008F1243030F59F7009F18E
:101F3000D80115969C91907FE1F4FB2CBACF80E0FC
:101F4000DCCF90E0389FF001399FF00D1124E65965
:101F5000FE4F6181561306C06081461303C0628143
:101F60006E110FC001968770D2CF9F7011F0882339
:101F700021F3805E883008F3C8010E94BD0DBD2C9E
:101F8000DCCFEE2009F495CF80919F018160809392
:101F90009F01F12C8ECF651312C0341310C0E110D5
:101FA0000EC0F8018583C8010E94BD0D86E0F801CE
:101FB000AAE9B1E001900D928A95E1F741C04D8701
:101FC0005E878D859E850E94060E882309F4C8C011
:101FD000EE2009F4C5C080919F01803270F02091FD
:101FE0009A0130919B0138872F831986DB86CA8638
:101FF0008C87CE0107960E94BD0D86E0F801AAE904
:10200000B1E001900D928A95E1F70E94830E0E9443
:10201000750EFF24F3944DCF911115C07C2DD98AF4
:10202000C88A6E2D89890E94350E8AE991E00E9446
:10203000BD0D86E0EAE9F1E0DF011D928A95E9F73E
:102040000E94750E36CF651312C0341310C0E11014
:102050000EC0F8018583C8010E94BD0DEAE9F1E0D8
:1020600086E0DF011D928A95E9F7FA2C22CF4D8791
:102070005E878D859E850E94060E882309F470C0B8
:10208000EE2009F46DC080919F01803208F4B5CF35
:1020900020919A0130919B013A8329831B82DD8232
:1020A000CC828E83CE010196A6CFC816D90638F110
:1020B000F601E81BF90BCF01F12C883C910508F0E3
:1020C0003DC0FE2CEE2009F44BC0651326C034132E
:1020D00024C080919F0180FD17C0982F907FA1F0B0
:1020E000D80115968C931597903F09F45CCF982FE3
:1020F000907F905F8F70892B15968C9354CF80952D
:1021000090958C0D9D1DD8CF86E0F801AAE9B1E02D
:1021100001900D928A95E1F7CCCE4D875E878D8533
:102120009E850E94060E811168CF80919F0181607B
:1021300080939F01C8010E94BD0DBBCE7C2DD98A22
:10214000C88A6E2D89890E94350E73CFEE2041F02A
:102150004D875E878D859E850E94060E81114DCF2D
:10216000C8010E94BD0D55CF1F93CF93DF93CDB70C
:10217000DEB72C970FB6F894DEBF0FBECDBF4F83EE
:10218000588769877A878B879C87CE0107960E943C
:10219000EE0E882309F442C09F8188852A853B85FD
:1021A000232B39F08F3F19F481E09F3F19F080E035
:1021B00001C081E080FD08C04F81588569857A851E
:1021C0008B859C850E94440E16E080916801909159
:1021D0006901891709F467C0819FC00111248659DC
:1021E0009E4F0E94EE0E882309F45DC0E0916801C5
:1021F0001E9FF0011124E659FE4F408151816281FA
:102200007381848195810E94440E8091680190E0E1
:1022100001968770992780936801D7CF86E0FE01E9
:102220003796DE01119601900D928A95E1F79F8114
:1022300088852A853B85232B39F08F3F19F481E06F
:102240009F3F19F080E001C081E080FDBDCF20916B
:10225000690130E0C90101968770992740916801B2
:102260004817190699F096E0929FD001939FB00D00
:102270001124A659BE4FFE01319601900D929A95F8
:10228000E1F7809369010E94540E9ECF0E94020ED6
:10229000109269011092680186E0EAE9F1E0DF013D
:1022A0001D928A95E9F72C960FB6F894DEBF0FBE03
:1022B000CDBFDF91CF911F910895EF92FF920F93C1
:1022C0001F93CF93DF938C01892B81F0F12CEE24A7
:1022D000E394E8012196F8018491843770F4843006
:1022E00008F05FC08130B1F08230A1F1DF91CF9171
:1022F0001F910F91FF90EF900895853709F44CC01E
:1023000008F43DC09CE7980F903780F78F770E94C4
:102310003D0B49C00E5F1F4FFE01849190E2980F64
:10232000983060F48770FE2D01C0FF0F8A95EAF7A0
:102330008F2F0E94AA140E94D11402C00E94610A29
:102340008F2D815030F2EFE9FFE03197F1F700C0B7
:102350000000F7CF0E5F1F4FFE01849190E2980FAF
:10236000983050F48770FE2D01C0FF0F8A95EAF770
:102370008F2F0E94B014DFCF0E943D0BE1CF0E5F84
:102380001F4FFE01C491C150D8F28FE99FE0019721
:10239000F1F700C00000F7CF0E5F1F4FFE01F49071
:1023A000CFCF0E94610A8E01CBCF08956093C70101
:1023B0007093C8018093C9019093CA010C94EE0DEB
:1023C0000F931F930091C7011091C8012091C9017B
:1023D0003091CA01DC01CB01802B912BA22BB32BB6
:1023E0008093C7019093C801A093C901B093CA011B
:1023F0001F910F910C94EE0D0F931F930091C70145
:102400001091C8012091C9013091CA01DC01CB01B2
:1024100080239123A223B3238093C7019093C80103
:10242000A093C901B093CA011F910F910C94EE0DB6
:102430000F931F930091C7011091C8012091C9010A
:102440003091CA01DC01CB0180279127A227B32755
:102450008093C7019093C801A093C901B093CA01AA
:102460001F910F910C94EE0D1092C3011092C401B4
:102470001092C5011092C6010C94EE0D41E050E09F
:1024800060E070E004C0440F551F661F771F8A95F7
:10249000D2F74093C3015093C4016093C501709378
:1024A000C6010C94EE0D41E050E060E070E004C025
:1024B000440F551F661F771F8A95D2F78091C3017D
:1024C0009091C401A091C501B091C601842B952BB8
:1024D000A62BB72B8093C3019093C401A093C50191
:1024E000B093C6010C94EE0D41E050E060E070E066
:1024F00004C0440F551F661F771F8A95D2F7409579
:102500005095609570958091C3019091C401A09100
:10251000C501B091C60184239523A623B7238093D8
:10252000C3019093C401A093C501B093C6010C945C
:10253000EE0D41E050E060E070E004C0440F551F34
:10254000661F771F8A95D2F78091C3019091C401CD
:10255000A091C501B091C60184279527A627B7276A
:102560008093C3019093C401A093C501B093C601A9
:102570000C94EE0D0F931F930091C3011091C401B1
:102580002091C5013091C601DC01CB01802B912B3C
:10259000A22BB32B8093C3019093C401A093C501D8
:1025A000B093C6011F910F910C94EE0D0F931F93E2
:1025B0000091C3011091C4012091C5013091C60161
:1025C000DC01CB0180239123A223B3238093C30199
:1025D0009093C401A093C501B093C6011F910F91C0
:1025E0000C94EE0D0F931F930091C3011091C40141
:1025F0002091C5013091C601DC01CB0180279127D4
:10260000A227B3278093C3019093C401A093C5016F
:10261000B093C6011F910F910C94EE0D089527E021
:10262000929F800D1124982F977071E001C0770F51
:102630009A95EAF786958695869525E0829FC00152
:10264000112450E040E0A62FB0E0FC01E40FF51F9C
:10265000E056FE4F60819D01042E02C036952795FD
:102660000A94E2F721702195262727232627208325
:102670004F5F5F4F4530510541F7089527E0929F26
:10268000800D1124982F977086958695869525E064
:10269000829FA001112470E060E080E0FA01E60F63
:1026A000F71FE056FE4F208130E0092E02C036951C
:1026B00027950A94E2F721703327062E01C0220FD6
:1026C0000A94EAF7822B6F5F7F4F6530710531F70F
:1026D0000895BF92CF92DF92EF92FF920F931F93D4
:1026E000CF93DF938C01C090C301D090C401E090E0
:1026F000C501F090C6018091C7019091C801A091D9
:10270000C901B091CA01C82AD92AEA2AFB2ACFE115
:10271000D0E0BC2ED701C6010C2E04C0B695A795FB
:10272000979587950A94D2F780FD0EC0219788F778
:10273000B12C8B2DDF91CF911F910F91FF90EF90D6
:10274000DF90CF90BF900895B8018C2F0E940106B2
:10275000019761F3EECFCF93DF93EC010E946913F1
:10276000BE01DF91CF910C9401061F93CF93DF93AD
:10277000EB0190916701992331F0CB01DF91CF916B
:102780001F910C94AB13882379F0CB010E9469133D
:10279000182F682FCE010E940F13BE01812FDF91E9
:1027A000CF911F910C940106CB010E943E13182F6C
:1027B000F4CF8091CB01859585958595089580917D
:1027C000CB018770089598E0899F90011124622BB6
:1027D0006093CB010C9453129091CB018095892387
:1027E0008093CB01282F277061F4282F082E000C2E
:1027F000330B9217130629F08595859585950C94D2
:10280000741208959091CB01977081E009F480E0F3
:102810000895909112019923E1F09091210297FF80
:1028200018C0E82FE695E695E695EF3139F120914D
:10283000000130910101E20FF32FF11D877021E0BB
:1028400030E001C0220F8A95EAF78181822B8183D3
:1028500008952091000130910101F90132969FEF16
:1028600040E05191851751F09F3F19F4511101C07B
:10287000942F4F5F4E31A9F79F3F09F40895290F18
:10288000311D97FD3A95F9018283089590911201C7
:102890009923F1F09091210297FF1AC0E82FE69555
:1028A000E695E695EF3129F1209100013091010183
:1028B000E20FF32FF11D282F277081E090E001C077
:1028C000880F2A95EAF7809591818923818308955D
:1028D0002091000130910101F9013296205E3F4FB5
:1028E0009191891303C0DF0111971C92E217F3073E
:1028F000B9F7089581E090E0E0910001F0910101C5
:10290000E80FF91F1082019680329105A9F708950A
:102910009091EF01892B8093EF010895982F909566
:102920008091EF0189238093EF0108951092EF01C8
:1029300008959091EE01892B8093EE010895982FD0
:1029400090958091EE0189238093EE010895109275
:10295000EE0108959091ED01892B8093ED0108958A
:10296000982F90958091ED0189238093ED01089532
:102970001092ED0108958093CC0108951092CC013E
:1029800008952091000130910101F9013196205EF6
:102990003F4F80E0919191118F5FE217F307D1F7DC
:1029A0000895E0910001F09101018091EF01808391
:1029B000E0910001F091010180819091EE01892B5D
:1029C0008083E0910001F091010180819091ED01FF
:1029D000892B80839091CC01992361F0E0910001D3
:1029E000F09101018081892B80830E94C1148111A3
:1029F0001092CC0180910001909101010C94470943
:102A00006DEE7EEF90E080E00E94142260E082E0B4
:102A100090E00E94022260E083E090E00E940222A7
:102A200060E084E090E00E94022260E085E090E0B7
:102A30000C94022290E080E00E94FC2121E08D3E77
:102A40009E4F09F020E0822F089582E090E00C94E0
:102A5000F421682F82E090E00C94022283E090E061
:102A60000C94F421682F83E090E00C94022284E01F
:102A700090E00C94F421682F84E090E00C94022202
:102A800080912702843039F11092F10188E190E0C1
:102A900020E40FB6F894A895809360000FBE2093B1
:102AA000600080E00E94E20583B7817F846083BF7D
:102AB00083B7816083BF7894889583B78E7F83BF07
:102AC0000FB6F894A89580916000886180936000AB
:102AD000109260000FBE089508950895CF930E944C
:102AE0006C150E9491080E946D15C0E08C2F0E9409
:102AF0002F09811105C0CF5FC730C1F7CF9108956D
:102B000081E0FCCF0E94020E0E943B090C94E2057A
:102B10001F920F920FB60F9211248F939F93AF9332
:102B2000BF938091F101811113C080911D0290919A
:102B30001E02A0911F02B09120024196A11DB11D5D
:102B400080931D0290931E02A0931F02B093200257
:102B5000BF91AF919F918F910F900FBE0F901F90DB
:102B6000189582E084BD93E095BD9AEF97BD809360
:102B70006E0008952FB7F89480911D0290911E0267
:102B8000A0911F02B09120022FBF0895CF92DF9233
:102B9000EF92FF920F931F932FB7F89440911D026D
:102BA00050911E0260911F02709120022FBF6A0196
:102BB0007B01EE24FF248C0130E020E0C016D1061A
:102BC000E206F30650F0481B590BCA011F910F9102
:102BD000FF90EF90DF90CF90089541505109F3CFCF
:102BE0001F920F920FB60F9211248F939F93AF9362
:102BF000BF9380911D0290911E02A0911F02B0917F
:102C000020020196A11DB11D80931D0290931E020A
:102C1000A0931F02B0932002BF91AF919F918F911B
:102C20000F900FBE0F901F9018950E949A1DF89458
:102C30002FEF87EA91E6215080409040E1F700C0F5
:102C4000000087E090EBDC0180933002909331022A
:102C5000A0933202B093330288E19CE00FB6F8945F
:102C6000A895809360000FBE90936000FFCFCF9235
:102C7000DF92EF92FF920F931F93CF93C0E0E82E65
:102C8000F12C8C2F0E942F0910E000E0C82ED12CCF
:102C9000C601002E02C0959587950A94E2F780FD43
:102CA00011C00F5F1F4F0730110591F7CF5FC7307D
:102CB00041F780E0CF911F910F91FF90EF90DF904F
:102CC000CF900895602F7C2F80E00E94E505E816E4
:102CD000F90639F781E0EECFCF93C82F8CE20E943E
:102CE0003716882321F08C2FCF910C94371680E073
:102CF000CF910895CF930E941A15811102C00E94AE
:102D00000015C5E6C15009F0D1C089E20E946C16D9
:102D10008111F8C08AE20E946C1681110E94001590
:102D200085E00E946C1681110E9415160E942515DF
:102D30008093F00187E00E946C16882371F08BE18C
:102D40000E946C16882309F4BAC09091F001892F73
:102D50008D7F91FF82608093F0018091F0010E944D
:102D600029150E94371590E090932202809321024A
:102D700080EE0E946C16882341F090912102892FE9
:102D80008E7F90FF81608093210289E30E946C1600
:102D9000882341F090912102892F8D7F91FF8260DD
:102DA0008093210282EE0E946C16882341F090915C
:102DB0002102892F8B7F92FF84608093210286EE0F
:102DC0000E946C16882341F090912102892F877F01
:102DD00093FF88608093210283EE0E946C16882303
:102DE00041F090912102892F8F7E94FF8061809322
:102DF000210285E30E946C16882341F09091210204
:102E0000892F8F7D95FF80628093210281E30E944C
:102E10006C16882341F090912102892F8F7B96FFB9
:102E200080648093210281E10E946C16882341F026
:102E300090912102892F97FB87F980588093210276
:102E4000809121020E943B1587E20E946C16C82FD8
:102E50008EE10E946C168111C2608FE10E946C1697
:102E60008111C46080E20E946C168111C86081E209
:102E70000E946C168111C06182E20E946C16811161
:102E8000C06283E20E946C168111C06484E20E94D9
:102E90006C16882389F1C0688C2F0E9432156C2F24
:102EA00070E090E080E0CF910C94D6110E949108E0
:102EB0008FE39CE90197F1F700C0000023CF8EE07B
:102EC0000E946C16882339F09091F001892F8B7F36
:102ED00092FF846040CF80E10E946C169091F001D7
:102EE000882329F0892F877F93FF886034CF892F2B
:102EF0008E7F90FF81602FCFC111CECF0E942E1503
:102F0000682FCECFCF9108958091F40180FF12C039
:102F10006091050185E0689FB00111247595679562
:102F20007595679560387105A8F561157105A1F172
:102F3000862F089581FF09C06091050185E0689F93
:102F4000B001112475956795EDCF82FF07C06091A0
:102F5000050185E0689FB0011124E4CF2091F501BF
:102F60002223A9F0909104016091050185E0689FFA
:102F7000B00111242917B0F6269FA001279F500DFC
:102F80001124692F70E0CA010E94C621CBCF65E0F1
:102F900070E0CECF8FE7089581E008958091F4012D
:102FA00080FF0CC06091030170E075956795759581
:102FB00067956115710549F1862F089581FF06C057
:102FC0006091030170E075956795F3CF60910301FF
:102FD00082FD0BC09091F5019923A1F0609102014F
:102FE00080910301961738F0682F70E06038710502
:102FF00000F38FE70895899FC001112470E00E94BB
:10300000C621F4CF61E070E0D7CF81E00895803F22
:1030100031F40E94841781958093F8010895813FCF
:1030200019F40E948417F8CF823F31F40E9484176C
:1030300081958093F7010895833F19F40E948417C6
:10304000F8CF893F29F40E94CE178093F9010895A3
:103050008A3F21F40E94CE178195F7CF8B3F31F440
:103060000E94CE1781958093FA0108958C3F19F440
:103070000E94CE17F8CF843F31F48091F601816031
:103080008093F6010895853F21F48091F6018260D6
:10309000F7CF863F21F48091F6018460F1CF873F1E
:1030A00021F48091F6018860EBCF883F21F4809174
:1030B000F6018061E5CF8D3F31F48091F4018160AC
:1030C0008093F40108958E3F21F48091F401826091
:1030D000F7CF8F3FB9F78091F4018460F1CF803F43
:1030E000C1F48091F80187FD1092F8018091F701F9
:1030F00081110EC08091F80181110AC08091F901FF
:10310000811106C08091FA01811102C01092F5016F
:103110000895813F29F48091F80118162CF3E6CF29
:103120009091F701823F29F497FFE0CF1092F701C9
:10313000DDCF833F19F41916CCF3D8CF893F39F48A
:103140008091F901181694F61092F901CFCF8A3FB9
:1031500029F48091F90187FFC9CFF6CF8B3F39F46D
:103160008091FA0187FFC2CF1092FA01BFCF8C3F46
:1031700029F48091FA011816BCF3B8CF843F31F4DA
:103180008091F6018E7F8093F601B0CF853F21F4C8
:103190008091F6018D7FF7CF863F21F48091F60173
:1031A0008B7FF1CF873F21F48091F601877FEBCFB2
:1031B000883F21F48091F6018F7EE5CF8D3F31F479
:1031C0008091F4018E7F8093F40190CF8E3F21F4A3
:1031D0008091F4018D7FF7CF8F3F09F087CF8091E9
:1031E000F4018B7FF0CF86EF91E00E9452090E949C
:1031F000BA159093F3018093F20108951F93CF9332
:10320000DF938091F2019091F3010E94C615AC0109
:103210009091F5012091060130E0911106C02091B6
:1032200007018AE0289F900111244217530780F07C
:103230008091F701C091F8011091F901D091FA0144
:1032400081110AC0C11178C0111176C0D11174C0AA
:10325000DF91CF911F9108959F3F19F09F5F909349
:10326000F501181624F40E9484178093F7018091C9
:10327000F70187FF05C00E94841781958093F701AD
:103280001C1624F40E9484178093F8018091F801A1
:1032900087FF05C00E94841781958093F801609193
:1032A000F701662331F1C091F801CC2311F1062E0C
:1032B000000C770B880B990B0E94CD2023E333E39E
:1032C00043E35FE30E9431210E9495206093F70160
:1032D0006C2FCC0F770B880B990B0E94CD2023E32A
:1032E00033E343E35FE30E9431210E949520609322
:1032F000F801111624F40E94CE178093F9018091F1
:10330000F90187FF05C00E94CE1781958093F901CE
:103310001D1624F40E94CE178093FA018091FA01C1
:1033200087FF05C00E94CE1781958093FA01DF9137
:10333000CF911F910C94F3189F3F09F08FCFA0CF2E
:1033400085E0E6EFF1E0DF011D928A95E9F7109242
:10335000F5011092F401089580911B020895CF9316
:10336000DF9300D01F92CDB7DEB79C01809127027A
:10337000843019F593E099833B832A839093E90085
:103380008FEF9091E800815095FD06C095ED9A95DC
:10339000F1F700008111F5CF8091E80085FF0DC0A5
:1033A00050E040E063E070E0CE0101960E940A1C0C
:1033B0008091E8008E778093E8000F900F900F9037
:1033C000DF91CF910895CF93DF9300D01F92CDB7B7
:1033D000DEB720912702243031F522E0298380587E
:1033E00091099B838A8383E08093E9008FEF90911A
:1033F000E800815095FD06C095ED9A95F1F7000023
:103400008111F5CF8091E80085FF0DC050E040E0CC
:1034100063E070E0CE0101960E940A1C8091E800F2
:103420008E778093E8000F900F900F90DF91CF91EF
:1034300008959C01809127028430F9F482E0809302
:10344000E9009FEF8091E800915085FD06C085ED71
:103450008A95F1F700009111F5CF8091E80085FF82
:103460000CC050E040E065E070E0C9010E940A1C19
:103470008091E8008E778093E8000895CF93DF93E2
:10348000EC01809127028430F1F49091120199238C
:10349000E9F09091210297FF19C08093E9008FEF26
:1034A0009091E800815095FD06C095E19A95F1F75D
:1034B00000008111F5CF8091E80050E040E060E22B
:1034C00070E085FD1AC0DF91CF91089581E080936F
:1034D000E9008FEF9091E800815095FD06C095EDD1
:1034E0009A95F1F700008111F5CF8091E80085FFF2
:1034F000EACF50E040E068E070E0CE010E940A1C94
:103500008091E8008E778093E80080E2FE01ABEFC7
:10351000B1E001900D928A95E1F7D5CF8091260216
:10352000811109C00E949A1D0E94F71D8091E2003E
:1035300084608093E2000895109226020895089511
:1035400008950C94821542E061EC81E00E94181D00
:1035500042E061EC82E00E94181D42E061EC83E0F1
:103560000E94181D42E261EC84E00C94181D8091C9
:103570002902833009F455C030F4813071F1823072
:1035800009F491C008958A3009F47DC08B3009F4A4
:1035900063C0893009F044C080912802813209F06B
:1035A0003FC080912C0290912D02009711F003975B
:1035B000B9F58091E800877F8093E8008091E8006A
:1035C00082FF2AC08091F10080931B028091E80065
:1035D0008B778093E8000C944C1D80912802813AEF
:1035E000F9F48091E800877F8093E80080912C02B5
:1035F00090912D02892B61F460E28BEF91E070E0F5
:103600000E94591C8091E8008B778093E800089510
:1036100060E090E080E0F3CF809127028111CECF6F
:10362000089580912802813AD9F780912C029091D7
:103630002D02892BA9F78091E800877F8093E8000D
:103640008091E80080FFFCCF809112018093F1000F
:103650008091E8008E77BDCF80912802813201F7FA
:1036600080912C0290912D02892BD1F68091E80057
:10367000877F8093E8000E944C1D80912A028093EE
:1036800012010C94020E80912802813249F6809139
:10369000E800877F8093E8000E944C1D80912B02F8
:1036A00080931C02089580912802813A09F0B8CFD6
:1036B0008091E800877F8093E8008091E80080FF98
:1036C000FCCF80911C02C2CF84B7877F84BF0FB626
:1036D000F894A895809160008861809360001092B2
:1036E00060000FBE80E880936100109261000E942C
:1036F0008A090E949A1D0E94F71D8091E200846051
:103700008093E20078940E9479200E948C0988E0DE
:1037100091E00E94360980912702853019F00E94BD
:103720009209F9CF0E94401580912502882399F3D0
:103730000E946E15882379F30E94F41BECCF292F89
:1037400033272330310579F158F421303105F1F078
:103750002230310519F190E080E030E020E01AC01D
:103760002132310599F122323105A9F7643098F7F9
:1037700070E0FB01EE0FFF1FEB5DFE4F20813181FA
:103780006F5D7E4FFB01808190E004C082E190E09C
:1037900029E637E0FA013183208308958DE690E031
:1037A0002CEF36E0F7CF99278130910561F028F0B2
:1037B000029789F6ECECF6E002C0E8EFF6E08491BF
:1037C00090E09F01E7CFE0EEF6E0F9CF643008F03B
:1037D000C2CFE62FF0E0EE0FFF1FE35DFE4F20812A
:1037E000318189E090E0D6CF80E189BD82E189BD59
:1037F00009B400FEFDCF8091D8008F7D8093D80062
:103800008091E00082608093E0008091E00081FD83
:10381000FCCF0895AF92BF92CF92DF92FF920F93A9
:103820001F93CF93DF936C01EB018A010E946B1D04
:10383000F82E811123C00115110539F0F80180819E
:103840009181C81BD90BC80ED91EB12CA12C209771
:10385000A9F08091E80085FD22C08091E8008E7774
:103860008093E80001151105A1F0F8018081918194
:10387000A80EB91EB182A08285E0F82E8F2DDF91AF
:10388000CF911F910F91FF90DF90CF90BF90AF909D
:1038900008950E946B1D8823D1F2F82EEFCFF60118
:1038A00081916F018093F1002197FFEFAF1ABF0A5A
:1038B000CECFFC0180912E0290912F0286179707A0
:1038C000A0F06115710529F49091E8009E7790931E
:1038D000E80090E06115710551F4911108C08091E4
:1038E000E80082FF35C080E00895BC01F2CF8091EE
:1038F00027028823C9F18530C9F18091E80083FD52
:1039000031C08091E80082FDEACF8091E80080FF1D
:10391000E1CF2091F3008091F200322F282F611522
:10392000710519F02830310558F091E02830310543
:1039300009F090E02091E8002E772093E800CACFAC
:1039400081918093F100615071092F5F3F4FE7CF64
:1039500080912702882341F0853041F08091E80072
:1039600083FFBDCF81E0089582E0089583E008954C
:10397000FC0180912E0290912F0286179707A0F0EC
:103980006115710529F48091E8008E778093E80035
:1039900090E06115710551F4911108C08091E80023
:1039A00082FF36C080E00895BC01F2CF80912702EB
:1039B0008823D1F18530D1F18091E80083FD32C0B8
:1039C0008091E80082FDEACF8091E80080FFE1CF9E
:1039D0002091F3008091F200322F282F611571059C
:1039E00019F02830310558F091E02830310509F000
:1039F00090E08091E8008E778093E800CACF8491B0
:103A00008093F1003196615071092F5F3F4FE6CFEF
:103A100080912702882341F0853041F08091E800B1
:103A200083FFBCCF81E0089582E0089583E008958C
:103A3000982F973028F08F708093E90081E00895E7
:103A40009093E900242F762F50E0981731F0709171
:103A5000EC002091ED005091F00021FD02C09F5F2D
:103A6000E8CF3091EB003E7F3093EB003091ED00DA
:103A70003D7F3093ED003091EB0031603093EB00EF
:103A80007093EC002093ED005093F0002091EE0035
:103A900027FDE5CF80E008958091280287FF13C0BD
:103AA0008091E80082FF06C08091E8008B778093C8
:103AB000E80004C0809127028111F2CF089580911F
:103AC00027028823D9F38091E80080FFF8CF809106
:103AD000E8008E77ECCF2091E4003091E50085E698
:103AE0009091EC0090FF06C09091E80090FF06C016
:103AF00080E008959091E80092FDFACF909127021E
:103B0000992391F0953091F09091EB0095FD10C0C4
:103B10004091E4005091E5002417350709F38150E6
:103B20009A01F1F684E0089582E0089583E0089513
:103B300081E008950E94081E0E94101EE0EEF0E051
:103B4000808181608083E8EDF0E080818F778083E1
:103B500019BCA7EDB0E08C918E7F8C9380818F7E15
:103B600080831092260208950F931F93CF93DF93C3
:103B70000E94081E0E94101EC8EDD0E088818F7739
:103B8000888388818068888388818F7D888319BC39
:103B90001092270210922302109225021092240202
:103BA00000EE10E0F80180818B7F80838881816046
:103BB000888342E060E080E00E94181DE1EEF0E0C2
:103BC00080818E7F8083E2EEF0E08081816080835F
:103BD000808188608083F80180818E7F80838881E6
:103BE00080618883DF91CF911F910F910895E8ED57
:103BF000F0E080818F7E8083E7EDF0E0808181605E
:103C0000808384E082BF81E0809326020C94B41DFF
:103C1000E8EDF0E080818E7F80831092E2000895CD
:103C20001092DA001092E10008951F920F920FB6E1
:103C30000F9211242F933F934F935F936F937F9332
:103C40008F939F93AF93BF93EF93FF938091E10086
:103C500082FF0BC08091E20082FF07C08091E100EB
:103C60008B7F8093E1000E9478208091DA0080FFB2
:103C700019C08091D80080FF15C08091DA008E7F36
:103C80008093DA008091D90080FF94C080E189BDE3
:103C900082E189BD09B400FEFDCF81E08093270257
:103CA0000E948E1A8091E10080FF19C08091E2008D
:103CB00080FF15C08091E2008E7F8093E2008091AA
:103CC000E20080618093E2008091D800806280935E
:103CD000D80019BC85E0809327020E94A01A809129
:103CE000E10084FF29C08091E20084FF25C080E1CB
:103CF00089BD82E189BD09B400FEFDCF8091D80065
:103D00008F7D8093D8008091E1008F7E8093E100C9
:103D10008091E2008F7E8093E2008091E2008160DA
:103D20008093E20080912302882309F449C084E053
:103D3000809327020E94A11A8091E10083FF29C08D
:103D40008091E20083FF25C08091E100877F80930E
:103D5000E10082E080932702109223028091E1002B
:103D60008E7F8093E1008091E2008E7F8093E2005D
:103D70008091E20080618093E20042E060E080E0B8
:103D80000E94181D8091F00088608093F0000E94CE
:103D90009F1AFF91EF91BF91AF919F918F917F916A
:103DA0006F915F914F913F912F910F900FBE0F90A8
:103DB0001F90189519BC109227020E949C1A72CF6E
:103DC0008091E30087FD02C081E0B2CF83E0B0CFF5
:103DD0001F920F920FB60F9211242F933F934F9380
:103DE0005F936F937F938F939F93AF93BF93CF9383
:103DF000EF93FF93C091E900CF708091EC00109297
:103E0000E9008091F000877F8093F00078940E9411
:103E1000241F1092E9008091F00088608093F000E8
:103E2000C093E900FF91EF91CF91BF91AF919F9126
:103E30008F917F916F915F914F913F912F910F9053
:103E40000FBE0F901F9018951F93CF93DF93CDB7A0
:103E5000DEB7AA970FB6F894DEBF0FBECDBFE8E27B
:103E6000F2E08091F100819322E0E033F207C9F79C
:103E70000E94B71A8091E80083FF42C08091280217
:103E8000909129029A3008F03BC0E92FF0E0E55B01
:103E9000F04E0C94DA21551F791F801F791F801F67
:103EA000D41FF61F801F4B205820803879F08238AD
:103EB00039F580912C028F708093E9008091EB009E
:103EC00085FB882780F91092E90006C080912402C2
:103ED00090912502911182609091E800977F9093D4
:103EE000E8008093F1001092F1008091E8008E7755
:103EF0002DC0282F2D7F21F48823D1F0823059F155
:103F00008091E80083FF0AC08091E800877F80935A
:103F1000E8008091EB0080628093EB00AA960FB6D8
:103F2000F894DEBF0FBECDBFDF91CF911F910895F2
:103F300080912A02813021F7933009F080E080934C
:103F400025021092E9008091E800877F8093E800C5
:103F50000E944C1DD5CF80912A028111F2CF809111
:103F60002C028F7069F28093E9002091EB0020FF12
:103F7000E8CF933031F48091EB0080628093EB00C6
:103F8000E0CF9091EB0090619093EB0021E030E066
:103F900001C0220F8A95EAF72093EA001092EA0006
:103FA0008091EB008860EACF8111AACF10912A029C
:103FB0001F778091E3008078812B8093E3008091CC
:103FC000E800877F8093E8000E944C1D8091E80004
:103FD00080FFFCCF8091E30080688093E30083E062
:103FE000111101C082E0809327028ACF805882306D
:103FF00008F086CF80912A0290912B028C3D23E01D
:104000009207A1F583E08A838AE289834FB7F89407
:10401000DE01139620E03EE051E2E32FF0E0509302
:104020005700E49120FF03C0E295EF703F5FEF700F
:104030008E2F90E0EA30C0F0C7968D939D932F5F4E
:10404000243159F74FBF8091E800877F8093E800C3
:104050006AE270E0CE0101960E94591C8091E8004E
:104060008B778093E8004CCFC096E7CFAE014F5FCF
:104070005F4F60912C020E949F1BBC01892B09F4A9
:104080003FCF9091E800977F9093E80089819A81D3
:104090000E94B81CE3CF803809F032CF8091E8004D
:1040A000877F8093E800809123028093F1001DCFE9
:1040B000811126CF90912A02923008F021CF809171
:1040C000E800877F8093E800909323020E944C1DB4
:1040D00080912302882331F084E0809327020E949C
:1040E000A31A0ECF8091E30087FDF6CF81E0F5CFD4
:1040F0000895CF9380912702882399F0C091E90019
:10410000CF708091EC0080FD0EC080E0C82B109233
:10411000E9008091E80083FD0E94241FCF70C093C6
:10412000E900CF91089580E8F1CF0E949C20689427
:10413000B1110C942B2108950E94102188F09F57F3
:1041400098F0B92F9927B751B0F0E1F0660F771FBB
:10415000881F991F1AF0BA95C9F714C0B13091F0B1
:104160000E942A21B1E008950C942A21672F782F0C
:104170008827B85F39F0B93FCCF386957795679576
:10418000B395D9F73EF490958095709561957F4FE2
:104190008F4F9F4F0895E89409C097FB3EF4909588
:1041A0008095709561957F4F8F4F9F4F9923A9F010
:1041B000F92F96E9BB279395F6958795779567959F
:1041C000B795F111F8CFFAF4BB0F11F460FF1BC0E3
:1041D0006F5F7F4F8F4F9F4F16C0882311F096E976
:1041E00011C0772321F09EE8872F762F05C0662324
:1041F00071F096E8862F70E060E02AF09A95660FDD
:10420000771F881FDAF7880F9695879597F9089595
:1042100057FD9058440F551F59F05F3F71F0479577
:10422000880F97FB991F61F09F3F79F0879508955C
:10423000121613061406551FF2CF4695F1DF08C07B
:10424000161617061806991FF1CF86957105610598
:1042500008940895E894BB2766277727CB0197F940
:1042600008950E9444210C94B5210E94A72138F0A2
:104270000E94AE2120F0952311F00C949E210C9405
:10428000A42111240C942B210E94082170F3959FE6
:10429000C1F3950F50E0551F629FF001729FBB273D
:1042A000F00DB11D639FAA27F00DB11DAA1F649FD9
:1042B0006627B00DA11D661F829F2227B00DA11D8C
:1042C000621F739FB00DA11D621F839FA00D611D12
:1042D000221F749F3327A00D611D231F849F600D33
:1042E000211D822F762F6A2F11249F5750409AF05C
:1042F000F1F088234AF0EE0FFF1FBB1F661F771FE8
:10430000881F91505040A9F79E3F510580F00C94B2
:104310009E210C942B215F3FE4F3983ED4F38695C5
:1043200077956795B795F795E7959F5FC1F7FE2B52
:10433000880F911D9695879597F9089597F99F672E
:1043400080E870E060E008959FEF80EC089500241D
:104350000A941616170618060906089500240A94EA
:1043600012161306140605060895092E0394000C70
:1043700011F4882352F0BB0F40F4BF2B11F460FFFF
:1043800004C06F5F7F4F8F4F9F4F089597FB072E9D
:1043900016F4009407D077FD09D00E94E02107FCB5
:1043A00005D03EF4909581959F4F08957095619545
:1043B0007F4F0895EE0FFF1F0590F491E02D0994B3
:1043C000AA1BBB1B51E107C0AA1FBB1FA617B7073B
:1043D00010F0A61BB70B881F991F5A95A9F7809557
:1043E0009095BC01CD010895F999FECF92BD81BD94
:1043F000F89A992780B50895A8E1B0E042E050E02E
:104400000C941C22262FF999FECF92BD81BDF89AFB
:10441000019700B4021639F01FBA20BD0FB6F89408
:10442000FA9AF99A0FBE08950196272F0E94032247
:104430000C940222DC01CB01FC01F999FECF06C0ED
:10444000F2BDE1BDF89A319600B40D924150504052
:08445000B8F70895F894FFCFBE
:10445800CD012808140A321EAC193E1A191AE3199C
:10446800AF1901F4F5F6F73133329190946697C697
:1044780034404D36393708EA07B4077B070E07275B
:0644880007400759070080
:00000001FF
